:020000040000FA
:1000000030060010D5000000D9000000DB00000021
:1000100000000000000000000000000000000000E0
:10002000000000000000000000000000DD000000F3
:100030000000000000000000DF000000E100000000
:10004000E3000000E3000000E3000000E300000024
:10005000E3000000E3000000E3000000E300000014
:10006000E3000000E3000000E3000000E300000004
:10007000E300000000000000E3000000E3000000D7
:10008000E3000000E3000000E3000000E3000000E4
:10009000E3000000C30100000000000000000000B9
:1000A000E3000000E3000000E300000000000000A7
:1000B000E3000000E3000000B10600003907000083
:1000C0000348854602F0B6FB00480047AD07000034
:1000D0003006001003480047FEE7FEE7FEE7FEE7B4
:1000E000FEE7FEE7C100000070B578480068012116
:1000F00009040843754908607548406A01210843AE
:10010000734948620846806A012108437049886241
:100110006E4800680121090308436C49086001200A
:10012000886183206B49C860684881696A480068B3
:1001300002F0E0F80509E1214902284602F0DAF868
:1001400084B22046E117090E09180912614A51606C
:10015000E117090E091809120902611A116003203A
:100160001146C860872088601520012181405B4AC4
:10017000116000BF012100F071F80120554948606D
:1001800070BD0120534948607047002051494860C4
:1001900070475049086000BF4E49496940221140EC
:1001A0000029F9D0704700B5034607E01878002809
:1001B00000D104E018785B1CFFF7EBFFF6E700BF07
:1001C00000BD002043E00321454A11800020414941
:1001D00089680E221140042902D00C2935D119E07A
:1001E000002014E03B4909683E4A3F4B1B88D1542C
:1001F0003D490988491C3C4A118011460988FF295C
:1002000003DD11460988491E1180411CC8B2082827
:10021000E8DB1BE012E02F490968324A324B1B88A9
:10022000D15431490988491C2F4A11801146098847
:10023000FF2903DD11460988491E118025494969B6
:10024000C907C90F0029E6D100E000BF00BF21495E
:100250008968C907C90F0029B5D0704710B50028B3
:1002600019DA224A03071B0F083B9B089B00D25850
:100270008307DC0EFF23A3409A434B071B0E840722
:10028000E40EA3401A43194B0407240F083CA408AA
:10029000A4001A5118E0114A03231B02D218830844
:1002A0009B00D2588307DC0EFF23A3409A434B07E1
:1002B0001B0E8407E40EA3401A43084B03242402B8
:1002C0001B198408A4001A5110BD0000808004404E
:1002D00080400440008000400000001000E100E089
:1002E00008000010570100100E0000101CED00E087
:1002F00070470A68531C0B6010707047FFFFFFFFC8
:1003000010B500248D48406AC005000F030002F0BC
:10031000CEFA10090B0D0F11131517191B1D1F21F4
:1003200023252729864C1DE0864C1BE0864C19E0CE
:10033000864C17E0864C15E0864C13E0864C11E0A5
:10034000864C0FE0864C0DE0864C0BE0864C09E0B5
:10035000864C07E0864C05E0864C03E0864C01E0C5
:10036000864C00BF00BF7548406AC006800E811CE5
:10037000204601F0BFFF044670484030006B800704
:10038000800F002806D0012808D0022825D0032895
:1003900077D125E07A487B49086072E067484030B1
:1003A00000688007800F002806D0012808D00228A6
:1003B0000AD003280FD10AE07148724908600AE0A8
:1003C0006F487049086006E06E48046003E0002052
:1003D0006C49086000BF00BF53E06A48046050E009
:1003E0005648403000688007800F002806D001285A
:1003F00019D002282CD0032841D13CE04F48806816
:10040000FF2181310840002803D05D485D49086024
:1004100008E04A488068C006C00E401C584948435E
:10042000584908602BE045488068FF218131084029
:10043000002803D052485349086008E03F488068CC
:10044000C006C00E401C4E4948434E49086016E0A5
:100450003A488068FF2181310840002802D049488D
:10046000046007E035488068C006C00E401C604349
:100470004449086003E000204249086000BF00BF13
:1004800000BF00BF2D484030816B3E48006801F03E
:1004900031FF3C49086010BD10B53B48806B2021FE
:1004A000884339498863002024490862002401E018
:1004B00000BF641CC82CFBD30120204940310860D8
:1004C0004860002048600120486000BF1B48403061
:1004D0004068C007C00F0028F8D023201749886063
:1004E0002948806B802188432749886300BF1348CF
:1004F000C068C007C00F0028F9D003200F49403161
:10050000086301204863002048630120486300BF5E
:100510000A484030406BC007C00F0028F8D00120C7
:100520000649403188631948044980310860012038
:1005300048618861C861FFF7E3FE10BD0080044098
:10054000801A060020A1070000350C00E0C810004A
:10055000C05C1500006A180040771B0080841E00F4
:10056000C0912100009F240040AC2700E032290008
:1005700020402C00604D2F0000D4300040E13300BB
:1005800000C0A80000000010008204405F000100CD
:1005900010B5002819DAF44A03071B0F083B9B0823
:1005A0009B00D2588307DC0EFF23A3409A434B07DE
:1005B0001B0E8407E40EA3401A43EB4B0407240FE1
:1005C000083CA408A4001A5118E0E84A03231B02BF
:1005D000D21883089B00D2588307DC0EFF23A34068
:1005E0009A434B071B0E8407E40EA3401A43DF4BCC
:1005F000032424021B198408A4001A5110BD0146CB
:10060000002080220A405209104340220A40D208AA
:10061000104320220A405208104310220A401209B7
:10062000104308220A409208104304220A40D200D4
:10063000104302220A4052011043CA07120E10430F
:10064000CB4AD26B1207120FC94BDA631A46D26B30
:100650000301DB431A43C64BDA63704700220021D3
:1006600006E0521C002100E0491CC24B9942FBD31A
:100670008242F6D3704710B5BF4800680421884312
:10068000BD490860002048600846C0680421084051
:10069000B949C8600846006904210843B6490861A1
:1006A0001E2000F052F902211E20FFF771FF10BD3D
:1006B00010B500240A20FFF7D1FF00BFAF48C06B80
:1006C000042108400028F9D0002403E0AC490C556F
:1006D000601C84B2322CF9DB0A20AA49088002206F
:1006E000A9490880A448C06904210843A249C861F7
:1006F00010BD10B5A548006880218843A349086053
:10070000002048600846C068802188439F49C8602F
:1007100008460069802108439C4908611F2000F0B9
:1007200014F902211F20FFF733FF9848C069802188
:1007300008439649C86110BD10B595480078401C23
:100740009349087008460078142801DD05200870D8
:1007500000BF9048C06B802108400028F9D00A20D3
:10076000FFF77CFF8948C069802108438749C86139
:100770008748007800F005FA8548027886A1894804
:1007800002F06AF88748FFF70EFD10BD10B51F2074
:1007900000F0E2F81E2000F0DFF810BD10B51F20B9
:1007A00000F0D3F81E2000F0D0F810BDC2B0002039
:1007B000419000245F26FF21013101A801F0C9FD0D
:1007C000FFF76AFE784800684021084376490860D0
:1007D00076480068FF210901084374490860FFF763
:1007E00083FCFFF786FFFFF746FF00F02FF900F0CC
:1007F00049F9002803D01820FFF701FF04E0FF208B
:10080000FFF7FDFE00BFFEE700F02EF9684F14254C
:10081000384600F0BCF9284600F0B3F9012000F09A
:1008200053F900F098F92B463A4662A15D4802F070
:1008300013F85C48FFF7B7FC86E000F07CF901286C
:1008400029D141A9684800F0D5F900F084F940A801
:10085000007900281FDD00F0E5FF002605E0624971
:10086000885DFFF796FC701C86B240A8007986422E
:10087000F5DB5E480078401C5C4908700878C117B9
:10088000490E0918C911C901411A584A1170104678
:100890000078FFF7B4FE3B480088FF2803DA3A48A7
:1008A0000088012840D1FFF771FF152000F054F8AF
:1008B000002405E03248005D01A90855601C84B29F
:1008C000304800888442F5DB00202E49088015203E
:1008D00000F03BF88020FFF792FEE1B201A800F0A3
:1008E0007BF900280BD06420FFF7B8FEFF20FFF74C
:1008F00086FE6420FFF7B2FE8020FFF780FE00F046
:100900002AF9FFF74BFF39480078FFF778FE0020FF
:100910001D49088036480078012805D1002000F0E4
:10092000D3F80020324908701648008800280BDDF3
:100930000120FFF793FE14480088002804DD1248C8
:100940000088401E1049088077E7C206D20E0121B8
:100950009140064A11607047C206D20E01219140B3
:10096000024A8032116070471CED00E000E100E0B7
:10097000C03F02501111000000800150C03F0150E3
:10098000570100100E0000100800001000800050F9
:100990000C000010C03F00500D0A506F7765723A8E
:1009A0002564000056020010808004400080025040
:1009B00080A1031C0D0A496E697469616C697A61D2
:1009C00074696F6E2066696E69736865642E0D0ABE
:1009D000467265713A2564687A20506F7765723A7D
:1009E00025326464426D0A00580000100B000010AC
:1009F0000A00001010B5002000F0A4FA9A48006820
:100A000040784006400E8030974909684870964803
:100A100000684178012000F050FA012000F092FABD
:100A20000021914800682030C1778F48006840302D
:100A3000017002228C4801683F31402000F000FA2A
:100A40006F228A49012000F01AFA10BD10B501206A
:100A500000F06BF9022000F01EF9002000F065F9AB
:100A6000062000F018F910BD10B58048401E7E49E0
:100A7000086000F01DF9FFF7E9FFFFF7BBFF00F08A
:100A800092FA10BD08B57AA000680090FFF7DEFF6B
:100A900000F00EF902226946062000F0D1F900218B
:100AA00068464170017002226946062000F0E7F9AD
:100AB000684600786C2805D168464078802801D1C6
:100AC000012008BD0020FCE710B50446204600F0D8
:100AD00039FA10BD10B500F0D0FA10BD10B500F015
:100AE000D9FA10BD10B500F0E1FA10BD00BFFEE765
:100AF00010B5012000F0E4FA10BD70B504460D46B3
:100B00002946204600F0E4FA70BD70B504460D4653
:100B10002946204600F0EBFA70BD10B500F0FEFA51
:100B200010BD10B50446204600F0CAFA10BD10B53D
:100B300000F0F7FA10BD10B500F0E2F910BD10B5E5
:100B400000F04EFE10BD10B500F06CFE10BD10B5EB
:100B500000F0B4FE10BD10B500F0CBFE10BD70B5B6
:100B600004460D462946204600F012FF70BD70B5C0
:100B700004460D4600233FA22946204600F064FFAC
:100B800070BD10B50446204600F0E9FF10BD10B559
:100B90000446204600F0F3FF10BD30B502460B4678
:100BA0000020C043002109E0545C44402406A40D09
:100BB000314D2C59050A6C402046491C9942F3D30B
:100BC000C043040E2D4D2C700402240E6C700404DE
:100BD000240EAC70E87030BD70B504460D46294651
:100BE0002046FFF7DAFF0123244A2946204600F079
:100BF0002BFF70BD38B504460D46002100916946B3
:100C0000204600F0C5FE68460078011F2046FFF729
:100C1000C4FF68460078001F205C184909788842A4
:100C20001DD168460078C01E205C1449497888426E
:100C300015D168460078801E205C1049897888426A
:100C40000DD168460078401E205C0C49C978884266
:100C500005D168460078001F2870002038BD0020AC
:100C600028700120FAE7000034000010BB020010D9
:100C70006C80000030303000382C00001000001074
:100C8000002105E0002200E0521C8242FCD3491CF6
:100C90000029F7D070470022002106E0521C0021F5
:100CA00000E0491C9F4B9942FBD38242F6D3704728
:100CB0009D48C06B042108439B49C8639B2080006A
:100CC0009A4908609A4800680121C9020843984976
:100CD0000860984800680F21084396490860084654
:100CE0000068954908409349086094480068F721D6
:100CF0000840924908609248C06B0221884390499D
:100D0000C8630846C06B042188438D49C863864880
:100D1000C06B402188438449C8630846C06BFF21EB
:100D2000013188438049C8637047012806D17E4954
:100D3000C96B082291437C4AD16305E07A49C96BAB
:100D400008221143784AD163704730B50546002424
:100D50002EE00120FFF794FF7348C06B40218843C9
:100D60007149C8632846A0408021084000280AD065
:100D70000120FFF785FF6C48C06B01214902084341
:100D80006949C86309E00120FFF77AFF6648C06B34
:100D90000121490288436449C8630120FFF770FFBD
:100DA0006148C06B402108435F49C863601CC4B2FE
:100DB000082CCEDB0120FFF763FF5B48C06B4021AE
:100DC00088435949C8630846C06B012149028843DA
:100DD0005549C86330BD30B50024002523E0524892
:100DE000C06B402188435049C8630120FFF748FF8A
:100DF0006006040E4C48C06B402108434A49C86352
:100E00000120FFF73DFF4848C06BFF21013108403A
:100E1000002802D0601CC4B200E0E4B20120FFF759
:100E20002FFF681CC5B2082DD9DB3F48C06B40219D
:100E300088433D49C8630120FFF722FF204630BDAB
:100E4000F0B505460E4617463748C06B0421884367
:100E50003549C863802129430846FFF776FF0024FF
:100E600004E0305DFFF771FF601CC4B2BC42F8DBE8
:100E70002D48C06B042108432B49C863F0BDF0B571
:100E800005460E4617462848C06B0421884326496C
:100E9000C8636806400EFFF758FF002404E0FFF720
:100EA0009AFF3055601CC4B2BC42F8DB1E48C06BD0
:100EB000042108431C49C863F0BD13B50446012250
:100EC00001A92046FFF7BCFF1CBD30B504460D4606
:100ED000012229462046FFF7D2FF30BD30B5044637
:100EE0000D462A4621460020FFF7AAFF30BD30B547
:100EF00004460D462A4621460020FFF7C0FF30BDBC
:100F000000200949C96B10221140080970470020D0
:100F10007047002070470020704700207047002075
:100F20007047000011110000C03F005000800050C9
:100F30000080015000800250FB0F00000080035031
:100F4000C03F025070B504460025FA48006840785A
:100F5000F8218843F849087008460078844219D07F
:100F6000032C01D1012500E00025F44800788542DA
:100F700001D0F2480570EF4800684078F821084039
:100F80002043EC4909684870EA480068417801202C
:100F9000FFF793FF70BD10B5E6480168413142206C
:100FA000FFF793FF10BD10B50020E5490870FFF76B
:100FB000F2FF6F22E3490120FFF761FF2020DD49A6
:100FC000096808736F22DF490120FFF739FFDE4906
:100FD000086800F0FBFDDC49887900F03FFFDA4942
:100FE000C87900F076FFD849087A00F09FFFD6490B
:100FF000487900F0EDFED449487A00F0FEFFD3486E
:1010000001F008F9D049087E01F05AF8012001F0FA
:1010100034F9CD480068CE4988420DD9002001F04E
:10102000ACF8002001F06CF80E20C74908710420CC
:10103000085600F018FE0EE03F210B20FFF73DFFA1
:10104000802001F09AF8012001F05AF8BE490420EE
:10105000085600F008FE0120FFF774FF10BD10B520
:101060000120FFF762FE0120FFF715FE0020FFF7C9
:101070005CFE0620FFF70FFE10BD10B5AD480168FD
:10108000491C0120FFF721FFAA4800684078F82199
:10109000884310BD10B5A74801680C310C20FFF73C
:1010A00014FFA4480068007B401110BDA9480078D7
:1010B0007047A949002008567047A84903C97047DE
:1010C0009F490870704700B50120FFF7F9FF00BD88
:1010D00070B505460C46A248008820800020A04933
:1010E000088022889F49284601F01AF970BD70B522
:1010F00004460D469448C07A002802D19A480580DB
:1011000002E0FF20984908809748028821469548C8
:1011100001F006F905208A49087070BD88480078FA
:101120007047F0B587B0012006908548007803002D
:1011300001F0BDFB0B070873C6FEFDFCFBFAF9F8D6
:10114000FA0049E30120FFF7FDFE9D207949096877
:10115000487478480068417C1120FFF7AEFE7A4859
:10116000C07A012815D17848017B72480068203088
:101170000171704801681C311C20FFF7A6FE6D4903
:101180000968097F8906090E784A505800F01EFD4B
:1011900004E0FF216748006820300171654800685D
:1011A000203001792420FFF788FE00216148006883
:1011B0002030C17780215F480068403001700222F2
:1011C0005C4801683F314020FFF73AFE5E48807A74
:1011D000012803D10620FFF7B5FE0EE05548006850
:1011E000C07B54490968487352480068417B0D2010
:1011F000FFF763FE0520FFF7A5FEFF2101315948E7
:1012000001F0A7F850484069594908600A20594937
:10121000086002204A490870DEE2FFF771FE0128EB
:101220001CD10A20534908604748C07A01280ED1D2
:10123000404801681C311C20FFF747FE3D49096802
:10124000097F8906090E494A505800F0BFFC402129
:101250001220FFF732FE032039490870FFF759FECC
:1012600001281DD10A20434908603748C07A012867
:101270000ED1304801681C311C20FFF726FE2D4995
:101280000968097F8906090E384A505800F09EFC0B
:1012900002211220FFF711FEFFF7FCFE2D49087016
:1012A0002948807A01280AD1324800680A21081AA0
:1012B0002F490968884202D90420214908708BE22D
:1012C0001C48016812311220FFF7FFFD1948006821
:1012D000807C2021084020280DD11220FFF7EDFD51
:1012E0001948807A012802D11549087002E00220CD
:1012F0001349087070E205A91920FFF7E6FD68465A
:10130000007D80210840002838D06846007DC04319
:10131000401C0006800E10490870084600784042C4
:1013200040B229E018E2F3E155E2E8E1C0E146E12C
:101330003FE100003400001056000010570000107C
:1013400038000010BB02001018000010FF0300005E
:10135000008F4233480000103C0000104000001095
:101360003A0000102A030010540000102831000039
:10137000500000104C000010087004E06846007D2A
:101380008010FE490870FE480068FE49884247D236
:10139000FA4800214156002926DA01460020085665
:1013A00001F074F905910490F5484079C000F649C0
:1013B00008180668324643680020F44901F086F8B0
:1013C00004460022F24B00F0CFFF0022F14B0191C6
:1013D000009000F0C9FF03910290059B049A00F071
:1013E000C3FFED4A03C262E0EC4801681A311A20DB
:1013F000FFF76BFDE9490968887E01F05BF9044657
:101400000D46DF484079C000E549081806683246B5
:1014100043682046294600F0A7FFDF4A03C246E0A2
:10142000D64800214156002926DA014600200856F8
:1014300001F02CF905910490D1484079C000D249BF
:1014400008180468224643680020D04901F03EF89D
:101450000022CF4B0191009000F086FF064600224B
:10146000D04B00F081FF03910290059B049A00F09D
:101470007BFFC94A03C21AE0C84801681A311A2022
:10148000FFF723FDC5490968887E01F013F904467A
:101490000D46BB484079C000C34909180E68324662
:1014A00020464B68294600F05FFFBB4A03C2B448A0
:1014B000807A01282FD1B9480068C07BB7490968F4
:1014C0004873B6480068417B0D20FFF7F6FCAC4836
:1014D000407A01280DD1B148006820308078B349A6
:1014E0000880AE48006820308178B148FFF7FFFCE3
:1014F00052E0AA48016813311320FFF7E6FCA74821
:101500000068C07CA9490880A4480068C17CA8483C
:10151000FFF7EDFC40E0A148016810311020FFF713
:10152000D4FC9748407A012819D19C4800682030A3
:1015300080789E49088099480068007C974909682E
:10154000487396480068417B0D20FFF7B6FC93482E
:101550000068203081789648FFF7C9FC1CE08F486E
:10156000016813311320FFF7B0FC8C480068C07C81
:101570008E49088089480068007C8849096848735A
:1015800086480068417B0D20FFF797FC8348006880
:10159000C17C8748FFF7ABFC7948807A012802D1EB
:1015A0008449087002E002208249087002200690F7
:1015B00012E101207F490870032006900CE1012010
:1015C000FFF7C0FC6E48C07A012819D1F520734995
:1015D000096848746A48017B7048006820300171CE
:1015E0006E4801681C311C20FFF76FFC6B490968CD
:1015F000097F8906090E704A505800F0E7FA08E0A2
:10160000F720664909684874002164480068203062
:10161000017162480068203001792420FFF74DFCF9
:101620005E480068417C1120FFF747FC6348017861
:101630005A4800682030817058480068203081780E
:101640002220FFF73AFC0020544909688873534868
:101650000068817B0E20FFF730FC50480068807BDB
:101660004E49096848734D480068417B0D20FFF7DB
:1016700024FC4A480068203081784D48FFF72EFC52
:101680004121464800682030C17700214348006866
:10169000403001700222414801683F314020FFF78D
:1016A000CFFB0320FFF74EFC06204249087093E071
:1016B000FFF726FC012806D108211220FFF7FDFBC9
:1016C00007203C490870FFF724FC012816D12C485C
:1016D000C07A01280ED1314801681C311C20FFF767
:1016E000F4FB2E490968097F8906090E324A5058D1
:1016F00000F06CFA02211220FFF7DFFB6CE0012002
:10170000FFF720FC00202B4908700420069063E0BE
:101710000120FFF717FCFA202049096848741F4888
:101720000068417C1120FFF7C8FB00211B480068BE
:101730002030C177194800684030017002221748F4
:1017400001683F314020FFF77BFB0720FFF7FAFBE2
:101750000A20184908703FE0FFF7DDFB012839D166
:1017600004211220FFF7A9FBFFF7D7FB01282CD19A
:1017700001211220FFF7A1FB012021E03C00001015
:1017800018000010008F4233383000000000244061
:1017900000C065C000001040400000103400001080
:1017A0008830000000001840D83000003A000010D7
:1017B0002A030010380000102831000054000010E7
:1017C000F24908700820069004E00020EF490870F4
:1017D0000720069000E000BF00BF069807B0F0BDEC
:1017E00008B569461920FFF770FB6846007880212C
:1017F000084000280DD068460078C043401C000611
:10180000800EE349087008460078404240B20870F4
:1018100004E0684600788010DD490870DC4900204B
:10182000085608BDF0B587B0FFF7DAFF002826DAC2
:10183000D7490020085600F029FF05910490D548AB
:101840004079C000D4490818046822464368002043
:10185000D24900F03BFE06460022D14B00F084FD49
:101860000022D04B0191009000F07EFD0391029088
:10187000059B049A00F078FDCB4A03C21AE0CB48DE
:1018800001681A311A20FFF720FBC8490968887ED1
:1018900000F010FF04460D46BE484079C000C44920
:1018A00009180E68324620464B68294600F05CFD58
:1018B000BD4A03C2BC4903C907B0F0BDF8B5BB4877
:1018C00001681B311B20FFF700FBB8490968C87E7F
:1018D00000F0F0FE06460F46AE484079C000B5491C
:1018E00008180468224643683046394600F03CFD3B
:1018F000F8BD10B50120FFF725FBBF20AB490968F3
:101900004874AA480068417C1120FFF7D6FAFF21ED
:10191000A648006820300171A44800682030017991
:101920002420FFF7CAFA3F21A04800682030C17781
:10193000B0219E4800684030017002229B48016837
:101940003F314020FFF77CFA9248807A012803D18A
:101950000620FFF7F7FA0EE094480068C07B934931
:101960000968487391480068417B0D20FFF7A5FA8C
:101970000520FFF7E7FAFF2101318F4800F0E9FC6D
:10198000844840698D4908600A208D49086010BD6F
:1019900070B505460C46FFF7B3FA012803D1402184
:1019A0001220FFF78AFA8148016812311220FFF7EE
:1019B0008CFA7E480068807C20210840202805D1D0
:1019C0001220FFF77AFA0020207070BDFFF708FFA1
:1019D000FFF728FF7548016810311020FFF775FAEE
:1019E0006C48407A012819D170480068203080780E
:1019F000744908806D480068007C6C490968487328
:101A00006A480068417B0D20FFF757FA6748006875
:101A1000203081786848FFF76AFA13E021461320E6
:101A2000FFF753FA61480068007C60490968487311
:101A30005E480068417B0D20FFF73FFA2178284679
:101A4000FFF755FA00BFC0E7FFB581B006460C4668
:101A5000002E01D0002C02D1012005B0F0BD0120E4
:101A6000FFF770FAF72051490968487400214F4880
:101A70000068203001714D48006820300179242031
:101A8000FFF71BFA49480068417C1120FFF715FA5F
:101A900046480068203084704448006820308078D0
:101AA000001DC1B22220FFF708FA00203F49096853
:101AB00088733E480068817B0E20FFF7FEF93B48A3
:101AC0000068807B39490968487338480068417B61
:101AD0000D20FFF7F2F93548006820308178304654
:101AE000FFF7FCF90498012808D1FC2C04DA042142
:101AF0000398FFF7F3F901E00120AEE77F212B48BF
:101B000000682030C17730212848006840300170DB
:101B10000222264801683F314020FFF791F9032057
:101B2000FFF710FA7D25ED0006E06D1E002700E0AE
:101B30007F1C25488742FBD3FFF7E2F9002801D13B
:101B4000002DF2D1002D01D1022086E708211220BC
:101B5000FFF7B3F90120FFF7F5F900207DE710B595
:101B600004463F210B20FFF7A8F9802000F005FB79
:101B7000012000F0C5FA60B200F075F810BD10B594
:101B80000446204600F022F810BD00003800001086
:101B90003C00001018000010383000000000244005
:101BA00000C065C00000104040000010340000106C
:101BB00088300000D83000002A03001050000010C8
:101BC0004C0000103A000010111100007CB50646D0
:101BD000FB480660304600F06DFD04460022F94BDC
:101BE00000F0DCFC0191009000F072FD064630022E
:101BF000000EF549096888713004000EF249096841
:101C0000C871F14909680E720322EF480168891D05
:101C10000620FFF715F97CBDF8B50322EA480168F4
:101C2000891D0620FFF72BF9E7480068807900043A
:101C3000E5490968C97909020843E3490968097A4D
:101C40000843DF490860086800F034FD04460022BC
:101C5000DC4B00F03BFC064600F03AFDD84908603A
:101C600008460068F8BD10B50446D7480168093138
:101C70000920FFF72AF9D44801684C314D20FFF7BD
:101C800024F9D1480068407A8021084080283FD15B
:101C9000CD4800684030007B8721084087281BD151
:101CA000052C00DA0524142C00DD1424C648006835
:101CB000407A8F2108407030C34909684872C24891
:101CC0000068407AF0210840611F0907090F0843A6
:101CD000BD490968487238E0022C00DA0224112C50
:101CE00000DD1124B8480068407A8F210840703028
:101CF000B54909684872B4480068407AF021084044
:101D0000A11E0907090F0843AF49096848721CE082
:101D10000020C043844200DA04460E2C00DD0E246D
:101D2000A9480068407A8F2108407030A6490968A8
:101D30004872A5480068407AF0210840611C0907F4
:101D4000090F0843A049096848729F480068417A12
:101D50000920FFF7B2F89A48047110BD10B59A48EF
:101D6000016809310920FFF7B0F8974801684C3144
:101D70004D20FFF7AAF894480068407A8021084077
:101D8000802819D1904800684030007B4007400F00
:101D9000072808D18C480068407AF0218843401D0C
:101DA0008749087110E088480068407AF02188432C
:101DB000801C8349087107E083480068407AF0215D
:101DC0008843401E7E4908717D490420085610BD95
:101DD00010B504467C4801681D311D20FFF775F8D9
:101DE00079480068407F0007000F210108437649C9
:101DF0000968487774480068417F1D20FFF75DF847
:101E00006F48447110BD10B56F4801681D311D2029
:101E1000FFF75BF86C480068407F00116849487123
:101E20000846407910BD10B5044667480168303156
:101E30003120FFF74AF8644800682030007CF82120
:101E40000840204360490968203108745E480068F2
:101E50002030017C3120FFF730F810BD10B504466A
:101E60000C2C01DD0C2402E0062C00DA0624062CE2
:101E700003D10520FFF7D7FF02E00320FFF7D3FFD0
:101E8000514801681E311E20FFF71FF84E480068B8
:101E9000807F0007000F210108434B4909688877BC
:101EA00049480068817F1E20FFF707F84448847185
:101EB00010BD10B5444801681E311E20FFF705F81B
:101EC00041480068807F00113D498871084680794B
:101ED00010BD10B504463C4801681D311D20FEF7B9
:101EE000F4FF39480068407FF12108406100084351
:101EF00035490968487734480068417F1D20FEF75E
:101F0000DCFF2F48C47110BD10B52F4801681D318A
:101F10001D20FEF7DAFF2C480068407FF12188433E
:101F200040102749C8710846C07910BD10B5044655
:101F3000254801681E311E20FEF7C7FF22480068B1
:101F4000807FFB210840A10008431F49096888776A
:101F50001D480068817F1E20FEF7AFFF18480472FD
:101F600010BD10B504460222174801682031202018
:101F7000FEF785FF2004010E134800682030017031
:101F8000114800682030447002220F480168203157
:101F90002020FEF755FF10BD10B502220A48016847
:101FA00020312020FEF76BFF0748006820300078C2
:101FB00000020549096820314978084310BD000036
:101FC0001800001080844E403400001010B5C7483F
:101FD00001681E311E20FEF778FFC4480068807F2C
:101FE000042108404010002801D0012000E000201A
:101FF000BF4908720846007A10BD10B50446BB48B8
:1020000001681D311D20FEF760FFB8480068407F61
:10201000FE2108402043B54909684877B348006865
:10202000417F1D20FEF749FFB148447210BD10B535
:10203000AE4801681D311D20FEF747FFAB48006820
:10204000407FC007C00FAA4948720846407A10BDB9
:10205000A74988727047A648807A7047A449C87219
:102060007047A348C07A704710B504469F4800687F
:10207000203004719D480068203001792420FEF74B
:102080001CFF9B48047310BD10B5984801682431AB
:102090002420FEF71AFF9548006820300079944903
:1020A00008730846007B10BD91490861704790484D
:1020B000006970478E49486170478D484069704794
:1020C00010B504468948006820308470874800684D
:1020D000203081782220FEF7F0FE8548047610BD7E
:1020E00010B58248016822312220FEF7EEFE7F48BB
:1020F0000068203080787E4908760846007E10BD52
:1021000010B50446794801684C314D20FEF7DDFEDC
:102110007648016809310920FEF7D7FE7348006848
:10212000407A80210840802807D1012C0AD18721DC
:102130006E4800684030017304E084216B480068F9
:1021400040300173694800684030017B4D20FEF744
:10215000B4FE10BD10B5654801684C314D20FEF746
:10216000B4FE624800684030007B4007400F0728FB
:1021700001D1012010BD0020FCE710B504465B48EA
:10218000016809310920FEF7A0FE58480068407A2E
:102190004006400E2043554909684872534800687C
:1021A000417A0920FEF789FE10BD10B54F4801683D
:1021B00009310920FEF789FE4C480068407AC009C1
:1021C000C00110BD10B50446484801680A310A2014
:1021D000FEF77BFE45480068807AF02108400A46F9
:1021E0002146914308434149096888723F48006885
:1021F000817A0A20FEF761FE10BD10B53B480168E8
:102200000A310A20FEF761FE38480068807AF02122
:10221000884310BD10B504460222344801681E31BF
:102220001E20FEF72CFE31480068807FFC2108400C
:102230002112FC22914308432C49096888772B49D5
:102240000968CC770222294801681E311E20FEF75A
:10225000F7FD10BD10B50222244801681E311E2072
:10226000FEF70DFE21480068807FFC2188430002B4
:102270001E490968C97F084310BD10B504461B48B4
:10228000016826312620FEF720FE1848006820301D
:102290008079F7210840E10008431449096820319A
:1022A000887112480068203081792620FEF705FEEB
:1022B00010BD10B50D48016826312620FEF705FE39
:1022C0000A4800682030807908210840C01010BDFD
:1022D00010B50648016830313120FEF7F6FD03489D
:1022E00000682030007C4007400F10BD3400001013
:1022F0001800001030B50B460146002020220124B2
:1023000009E00D46D5409D4205D31D469540491B29
:102310002546954040191546521E002DF1DC30BD72
:1023200003460B439B0703D009E008C9121F08C0EE
:10233000042AFAD203E00B780370401C491C521E99
:10234000F9D27047D2B201E00270401C491EFBD2A4
:1023500070470022F6E710B513460A4604461946B0
:10236000FFF7F0FF204610BDF0B50746084658407D
:1023700087B0C00F049048000E4659004008490835
:10238000BC1A884105D2384631461E4617460B46D0
:1023900002465800400810434CD0300D03904005D1
:1023A0005900400D490D0590401A0290402872DAFC
:1023B00018030121000B09050843019004980092BD
:1023C000002805D0019952420020884100920190D6
:1023D000029840210A1A0199009800F097F90546E1
:1023E0000C466B4607CB00F0B2F9C0197141039A55
:1023F0000E0D0023D71756401A467A40164344D094
:10240000049A002A2DD0029A012A039A15DC12059B
:10241000C01A914101263605001C7141D20F059E5C
:10242000D2070093019202962A46234600F0AFF9A4
:1024300007B0F0BD38463146FAE71605224A0F4686
:10244000B218C01AB74101210905001C4F410018FC
:102450007F41114618187941E20F10436D1964410C
:1024600013E0E2076D0815436408C2071443039A9A
:1024700001261205C01A91413605001C7141CE0794
:10248000400830434908C01851412A46234600F00D
:1024900071F9CDE7FFE7049801224000C117121A35
:1024A00000238B4104983146C417381AA141EEE746
:1024B00030B40124E407634030BC55E730B4012454
:1024C000E407614030BC4FE70000E0FFF0B51FB407
:1024D00088B00B990998002448400999C00F490019
:1024E00049080991C0070B990090490049080B91D0
:1024F00009990898A64608431CD00B990A980843E6
:1025000018D0099801244000420D4800410D099857
:1025100024050003000B204309900B980003000BD7
:1025200020430B9050181C4940180022019014467B
:10253000104605E0002001460DB0F0BD032801DA89
:10254000034600E003239C46C11A0AAE0AE05F007E
:1025500008ADED5B4F00F75B7D430027AA187C4177
:10256000491C5B1E6145F2DD410004AB5A52210457
:10257000120C0A43240C401C0828DFDB019802904F
:102580000099704601910090059B049A079906985E
:1025900000F0FDF8D0E700000DFCFFFFF0B50C46A1
:1025A0005C4085B0E40FE40703944C000026640807
:1025B00059009446490802460296224321D06246B9
:1025C0000A431ED06200570D4A000E032303550D27
:1025D000012402462C492405781B1B0B360B40189E
:1025E00023432643614600901C46501AB44103D34E
:1025F0000098401C009002E0921800985B4100286F
:1026000003DA0020014605B0F0BD002001210905D4
:102610000746864611E064461D46141BB54106D3A5
:102620006546521BB341744607430C43A646CD078B
:1026300040084908284392185B4105460D43EAD1FA
:102640001046184313D06046194650407140084365
:1026500006D06046101AB34106D20122002306E0DC
:1026600000220123DB0702E00122D243531000982D
:1026700074460105381C6141029C039D00196941A3
:1026800000F078F8BFE70000FD0300000EB5C217A8
:10269000C10F5040CA0740180021054B0293019218
:1026A00000910A460B4600F072F803B000BD00002E
:1026B000330400000EB505490291002100910A463D
:1026C0000B46019100F063F803B000BD3304000035
:1026D0004A0009030123090B1B051943094B10B5D7
:1026E000520D9A4201DA002010BD064B34339A4253
:1026F00003DC9A1A00F01AF810BD034951188840FB
:1027000010BD0000FF030000CDFBFFFF10B5202A25
:1027100004DB0146203A9140002010BD9140202367
:102720009C1A0346E3401943904010BD10B5202A7F
:1027300004DB0846203AD040002110BD0B46D340B0
:10274000D0402024A21A91400843194610BD10B56C
:10275000202A06DBCB170846203A1041C1170B434D
:1027600006E00B461341D0402024A21A91400843B2
:10277000194610BD10B5002B08DA0024401C614139
:1027800092185B411A4301D14008400010BDF0B5DA
:102790001FB482B005460C0003D0084600F070F864
:1027A00002E000F06DF820300246009021462846F5
:1027B000FFF7ACFF049B059A04460F4618431143EC
:1027C000084314D0184610431BD0009840210A1A21
:1027D00018460599FFF7AAFF05460E46009A059987
:1027E0000498FFF793FF084305D0012004E020463A
:1027F000394607B0F0BD0020C11705430E432C43F6
:10280000374300990E986305401A7905E40A0022BF
:102810000C43FD0A0A3002D500200146E9E7010514
:10282000101969410C9C0D9D00196941FFF7A2FF29
:10283000DFE70000064C0125064E05E0E36807CC03
:102840002B430C3C98471034B442F7D3FDF73CFCC3
:10285000F4310000143200000FB410B504A9074B86
:1028600002AA039800F040F8044602A90020FDF7F0
:1028700040FD204610BC08BC04B01847F30200001D
:102880002021020C01D010211046020A01D010466E
:102890000839020901D01046091F820801D01046EC
:1028A000891E420801D0881E7047081A704730B44C
:1028B0007446641E2578641CAB4204D3635D5B00E0
:1028C000E31830BC18471D46F8E702E008C8121F9D
:1028D00008C1002AFAD17047002001E001C1121F8F
:1028E000002AFBD170470000FFB58FB005460026D7
:1028F00006E025280AD0129A119990476D1C761C83
:1029000028780028F5D1304613B0F0BD0024029499
:102910000121B54A009400E004436D1C2B78084661
:10292000203B98401042F7D128782A280ED0022266
:10293000287801463039092916D802990A235943C3
:102940003039401814436D1C0290F1E7109802C80A
:1029500002911090002904DA012040030443484208
:102960000290022004436D1C28782E2817D10420E1
:10297000044368786D1C2A280CD110986D1C02C87D
:10298000009110900BE000990A2251433039401811
:102990006D1C00902878014630390929F3D9287830
:1029A0006C2810D006DC4C281AD068280ED06A2873
:1029B00017D104E0742813D07A2812D110E0012036
:1029C000400504430CE00121090501E0032109054C
:1029D0000C436978814203D10120000524186D1C45
:1029E0006D1C2878692874D006DC00288BD06328F9
:1029F00027D0642806D16CE06E2808D073282CD02C
:102A0000752878D0129A11999047761C5FE0600281
:102A1000400F022809D003280DD00428109801681F
:102A20000DD00E60001D109051E01098F217016853
:102A30000E604A60F6E7109801680E80F2E70E70AB
:102A4000F0E710986A4601781173001D109000207D
:102A5000507303A80190012005E0109802C801916D
:102A600010900020C04361070CD5002700E07F1CB8
:102A700000998F420FDA8742F9DB0199C95D00297D
:102A8000F5D108E0002700E07F1C8742FCDB0199BC
:102A9000C95D0029F8D102982146C01B0290129B03
:102AA000119A00F0B3F88019C61907E0019801994E
:102AB0000078491C0191129A119990477F1EF5D216
:102AC0002146129B119A029800F090F886196D1C0D
:102AD00016E70A200190109901C910916102490F6F
:102AE000032900D100B2042900D140B2002803DA42
:102AF00040422D2103E00DE0210504D52B216A463B
:102B00001173012103E0E10711D02021F7E70CAF99
:102B10000C9114E00A200190109901C910916102F2
:102B2000490F032900D180B2042900D1C0B200218D
:102B3000EDE70199FFF7DEFB30317F1E3970002889
:102B4000F7D104A8C01B20300190600704D50120F4
:102B500000048443009801E001200090019988421C
:102B600001DD401A00E00020411800900C9809187F
:102B70000298401A0290E00306D42146129B119A53
:102B8000029800F043F8861900200D9008E003A990
:102B9000085C129A119990470D98401C761C0D9074
:102BA0000C998842F3DBE0030CD52146129B119A65
:102BB000029800F02BF8861904E0129A302011993F
:102BC0009047761C0099481E00900029F5DC05E02E
:102BD0003878129A7F1C11999047761C0199481EEB
:102BE00001900029F4DC6BE709280100F8B50446E0
:102BF00000251E461746880404D405E039462020E7
:102C0000B0476D1C641EF9D52846F8BDFFB50446D3
:102C1000002581B01E46C80301D5302700E02027DB
:102C2000880404D505E038460399B0476D1C641E3E
:102C3000F9D5284605B0F0BD0000000096300777B2
:102C40002C610EEEBA51099919C46D078FF46A70A0
:102C500035A563E9A395649E3288DB0EA4B8DC79C0
:102C60001EE9D5E088D9D2972B4CB609BD7CB17E40
:102C7000072DB8E7911DBF906410B71DF220B06A10
:102C80004871B9F3DE41BE847DD4DA1AEBE4DD6D20
:102C900051B5D4F4C785D38356986C13C0A86B6420
:102CA0007AF962FDECC9658A4F5C0114D96C066340
:102CB000633D0FFAF50D088DC8206E3B5E10694C20
:102CC000E44160D5727167A2D1E4033C47D4044B60
:102CD000FD850DD26BB50AA5FAA8B5356C98B24240
:102CE000D6C9BBDB40F9BCACE36CD832755CDF45C0
:102CF000CF0DD6DC593DD1ABAC30D9263A00DE51F0
:102D00008051D7C81661D0BFB5F4B42123C4B356DF
:102D10009995BACF0FA5BDB89EB802280888055F5F
:102D2000B2D90CC624E90BB1877C6F2F114C6858BF
:102D3000AB1D61C13D2D66B69041DC760671DB01AD
:102D4000BC20D2982A10D5EF8985B1711FB5B6067F
:102D5000A5E4BF9F33D4B8E8A2C9077834F9000FBF
:102D60008EA8099618980EE1BB0D6A7F2D3D6D085F
:102D7000976C6491015C63E6F4516B6B62616C1C4F
:102D8000D83065854E0062F2ED95066C7BA5011B7F
:102D9000C1F4088257C40FF5C6D9B06550E9B7121F
:102DA000EAB8BE8B7C88B9FCDF1DDD62492DDA15DF
:102DB000F37CD38C654CD4FB5861B24DCE51B53AFF
:102DC0007400BCA3E230BBD441A5DF4AD795D83DFF
:102DD0006DC4D1A4FBF4D6D36AE96943FCD96E343F
:102DE000468867ADD0B860DA732D0444E51D03331F
:102DF0005F4C0AAAC97C0DDD3C710550AA4102272F
:102E000010100BBE86200CC925B56857B3856F20FE
:102E100009D466B99FE461CE0EF9DE5E98C9D9295E
:102E20002298D0B0B4A8D7C7173DB359810DB42E9E
:102E30003B5CBDB7AD6CBAC02083B8EDB6B3BF9AEA
:102E40000CE2B6039AD2B1743947D5EAAF77D29D76
:102E50001526DB048316DC73120B63E3843B649456
:102E60003E6A6D0DA85A6A7A0BCF0EE49DFF099356
:102E700027AE000AB19E077D44930FF0D2A30887C6
:102E800068F2011EFEC206695D5762F7CB67658076
:102E900071366C19E7066B6E761BD4FEE02BD38976
:102EA0005A7ADA10CC4ADD676FDFB9F9F9EFBE8ED6
:102EB00043BEB717D58EB060E8A3D6D67E93D1A116
:102EC000C4C2D83852F2DF4FF167BBD16757BCA6F6
:102ED000DD06B53F4B36B248DA2B0DD84C1B0AAF96
:102EE000F64A0336607A0441C3EF60DF55DF67A816
:102EF000EF8E6E3179BE69468CB361CB1A8366BCA6
:102F0000A0D26F2536E2685295770CCC03470BBBF5
:102F1000B91602222F260555BE3BBAC5280BBDB2F5
:102F2000925AB42B046AB35CA7FFD7C231CFD0B595
:102F30008B9ED92C1DAEDE5BB0C2649B26F263EC87
:102F40009CA36A750A936D02A906099C3F360EEB95
:102F50008567077213570005824ABF95147AB8E255
:102F6000AE2BB17B381BB60C9B8ED2920DBED5E535
:102F7000B7EFDC7C21DFDB0BD4D2D38642E2D4F185
:102F8000F8B3DD686E83DA1FCD16BE815B26B9F615
:102F9000E177B06F7747B718E65A0888706A0FFF75
:102FA000CA3B06665C0B0111FF9E658F69AE62F835
:102FB000D3FF6B6145CF6C1678E20AA0EED20DD735
:102FC0005483044EC2B30339612667A7F71660D055
:102FD0004D476949DB776E3E4A6AD1AEDC5AD6D995
:102FE000660BDF40F03BD83753AEBCA9C59EBBDEB5
:102FF0007FCFB247E9FFB5301CF2BDBD8AC2BACA65
:103000003093B353A6A3B4240536D0BA9306D7CDD4
:103010002957DE54BF67D9232E7A66B3B84A61C4F4
:10302000021B685D942B6F2A37BE0BB4A18E0CC3B4
:103030001BDF055A8DEF022D417574196F240F4067
:103040002EBAACDA271210404032C4C178C6104004
:10305000661330AC68461140E029CEF6B9FA11404B
:103060000101CEFEA97A12408021D82BFB2E1340FD
:103070002019E2603C631440C010EC957D97154028
:103080006008F6CABECB164000000000006063C0B6
:1030900000000000006063C000000000006063C02A
:1030A00000000000006063C000000000006063C01A
:1030B00000000000006063C000000000006063C00A
:1030C00000000000006063C000000000006063C0FA
:1030D00000000000006063C00000000000C062C08B
:1030E0000000000000C062C00000000000C062C01C
:1030F0000000000000C062C00000000000C062C00C
:103100000000000000C062C00000000000C062C0FB
:103110000000000000C062C00000000000C062C0EB
:103120000000000000C062C020AEA036E07D0B377A
:10313000A017083660F0AF3660F0AF36403D2E364F
:10314000C0AFD235000D993620A5633680A3313744
:103150004061223760DE353640466B36A032BF36DE
:10316000A032BF36A00ECB35E0625436A0443937CA
:10317000A00ECB35809AF436001F1337E050DA35B5
:1031800040466B36809AF43680A33137807F3D36D7
:103190000016D636A03BFC36C0C14C36809AF436B9
:1031A00060DE353680A33137809AF4368091B736A9
:1031B00060022A3700FB1E3660F0AF36A044393774
:1031C000209C2636000D993660D5F835000D9936CD
:1031D000C0AFD2354034F135C0CA893640466B366F
:1031E000C0B80F36807F3D36A044393760022A3799
:1031F000C0C14C361432000000000010580000001E
:10320000CA2800006C32000058000010D8050000E9
:10321000D82800000000A302000000000000000009
:1032200014000000000000000000000020C7291C5E
:1032300014090A02010000000400000064000000FC
:10324000640000008000000000000000000000009A
:10325000000000000000000000000000010000006D
:0C32600000000000000000000000010160
:04000005000000C136
:00000001FF
